{
	"eventTicket.sol": {
		"EventTicket": {
			"abi": [
				{
					"inputs": [
						{
							"internalType": "uint256",
							"name": "_ticketPrice",
							"type": "uint256"
						}
					],
					"stateMutability": "nonpayable",
					"type": "constructor"
				},
				{
					"inputs": [
						{
							"internalType": "uint256",
							"name": "_value",
							"type": "uint256"
						}
					],
					"name": "byTicket",
					"outputs": [
						{
							"internalType": "uint256",
							"name": "TicketId",
							"type": "uint256"
						}
					],
					"stateMutability": "nonpayable",
					"type": "function"
				},
				{
					"inputs": [],
					"name": "getAmount",
					"outputs": [
						{
							"internalType": "uint256",
							"name": "",
							"type": "uint256"
						}
					],
					"stateMutability": "view",
					"type": "function"
				}
			],
			"devdoc": {
				"kind": "dev",
				"methods": {},
				"version": 1
			},
			"evm": {
				"assembly": "    /* \"eventTicket.sol\":57:754  contract EventTicket {... */\n  mstore(0x40, 0x80)\n    /* \"eventTicket.sol\":225:271  string message = \"Buy your first event ticket\" */\n  mload(0x40)\n  dup1\n  0x40\n  add\n  0x40\n  mstore\n  dup1\n  0x1b\n  dup2\n  mstore\n  0x20\n  add\n  0x42757920796f7572206669727374206576656e74207469636b65740000000000\n  dup2\n  mstore\n  pop\n  0x06\n  swap1\n  dup1\n  mload\n  swap1\n  0x20\n  add\n  swap1\n  tag_1\n  swap3\n  swap2\n  swap1\n  tag_2\n  jump\t// in\ntag_1:\n  pop\n    /* \"eventTicket.sol\":278:486  constructor(uint256 _ticketPrice) {... */\n  callvalue\n  dup1\n  iszero\n  tag_3\n  jumpi\n  0x00\n  dup1\n  revert\ntag_3:\n  pop\n  mload(0x40)\n  sub(codesize, bytecodeSize)\n  dup1\n  bytecodeSize\n  dup4\n  codecopy\n  dup2\n  dup2\n  add\n  0x40\n  mstore\n  dup2\n  add\n  swap1\n  tag_4\n  swap2\n  swap1\n  tag_5\n  jump\t// in\ntag_4:\n    /* \"eventTicket.sol\":336:348  _ticketPrice */\n  dup1\n    /* \"eventTicket.sol\":322:333  ticketPrice */\n  0x01\n    /* \"eventTicket.sol\":322:348  ticketPrice = _ticketPrice */\n  dup2\n  swap1\n  sstore\n  pop\n    /* \"eventTicket.sol\":368:383  block.timestamp */\n  timestamp\n    /* \"eventTicket.sol\":358:365  startAt */\n  0x03\n    /* \"eventTicket.sol\":358:383  startAt = block.timestamp */\n  dup2\n  swap1\n  sstore\n  pop\n    /* \"eventTicket.sol\":419:425  7 days */\n  0x093a80\n    /* \"eventTicket.sol\":401:416  block.timestamp */\n  timestamp\n    /* \"eventTicket.sol\":401:425  block.timestamp + 7 days */\n  tag_8\n  swap2\n  swap1\n  tag_9\n  jump\t// in\ntag_8:\n    /* \"eventTicket.sol\":393:398  endAt */\n  0x04\n    /* \"eventTicket.sol\":393:425  endAt = block.timestamp + 7 days */\n  dup2\n  swap1\n  sstore\n  pop\n    /* \"eventTicket.sol\":477:479  24 */\n  0x18\n    /* \"eventTicket.sol\":472:474  60 */\n  0x3c\n    /* \"eventTicket.sol\":467:469  60 */\n  dup1\n    /* \"eventTicket.sol\":456:463  startAt */\n  sload(0x03)\n    /* \"eventTicket.sol\":448:453  endAt */\n  sload(0x04)\n    /* \"eventTicket.sol\":448:463  endAt - startAt */\n  tag_10\n  swap2\n  swap1\n  tag_11\n  jump\t// in\ntag_10:\n    /* \"eventTicket.sol\":447:469  (endAt - startAt) / 60 */\n  tag_12\n  swap2\n  swap1\n  tag_13\n  jump\t// in\ntag_12:\n    /* \"eventTicket.sol\":447:474  (endAt - startAt) / 60 / 60 */\n  tag_14\n  swap2\n  swap1\n  tag_13\n  jump\t// in\ntag_14:\n    /* \"eventTicket.sol\":447:479  (endAt - startAt) / 60 / 60 / 24 */\n  tag_15\n  swap2\n  swap1\n  tag_13\n  jump\t// in\ntag_15:\n    /* \"eventTicket.sol\":435:444  timeRange */\n  0x05\n    /* \"eventTicket.sol\":435:479  timeRange = (endAt - startAt) / 60 / 60 / 24 */\n  dup2\n  swap1\n  sstore\n  pop\n    /* \"eventTicket.sol\":278:486  constructor(uint256 _ticketPrice) {... */\n  pop\n    /* \"eventTicket.sol\":57:754  contract EventTicket {... */\n  jump(tag_16)\ntag_2:\n  dup3\n  dup1\n  sload\n  tag_17\n  swap1\n  tag_18\n  jump\t// in\ntag_17:\n  swap1\n  0x00\n  mstore\n  keccak256(0x00, 0x20)\n  swap1\n  0x1f\n  add\n  0x20\n  swap1\n  div\n  dup2\n  add\n  swap3\n  dup3\n  tag_20\n  jumpi\n  0x00\n  dup6\n  sstore\n  jump(tag_19)\ntag_20:\n  dup3\n  0x1f\n  lt\n  tag_21\n  jumpi\n  dup1\n  mload\n  not(0xff)\n  and\n  dup4\n  dup1\n  add\n  or\n  dup6\n  sstore\n  jump(tag_19)\ntag_21:\n  dup3\n  dup1\n  add\n  0x01\n  add\n  dup6\n  sstore\n  dup3\n  iszero\n  tag_19\n  jumpi\n  swap2\n  dup3\n  add\ntag_22:\n  dup3\n  dup2\n  gt\n  iszero\n  tag_23\n  jumpi\n  dup3\n  mload\n  dup3\n  sstore\n  swap2\n  0x20\n  add\n  swap2\n  swap1\n  0x01\n  add\n  swap1\n  jump(tag_22)\ntag_23:\ntag_19:\n  pop\n  swap1\n  pop\n  tag_24\n  swap2\n  swap1\n  tag_25\n  jump\t// in\ntag_24:\n  pop\n  swap1\n  jump\t// out\ntag_25:\ntag_26:\n  dup1\n  dup3\n  gt\n  iszero\n  tag_27\n  jumpi\n  0x00\n  dup2\n  0x00\n  swap1\n  sstore\n  pop\n  0x01\n  add\n  jump(tag_26)\ntag_27:\n  pop\n  swap1\n  jump\t// out\n    /* \"#utility.yul\":88:205   */\ntag_29:\n    /* \"#utility.yul\":197:198   */\n  0x00\n    /* \"#utility.yul\":194:195   */\n  dup1\n    /* \"#utility.yul\":187:199   */\n  revert\n    /* \"#utility.yul\":334:411   */\ntag_31:\n    /* \"#utility.yul\":371:378   */\n  0x00\n    /* \"#utility.yul\":400:405   */\n  dup2\n    /* \"#utility.yul\":389:405   */\n  swap1\n  pop\n    /* \"#utility.yul\":334:411   */\n  swap2\n  swap1\n  pop\n  jump\t// out\n    /* \"#utility.yul\":417:539   */\ntag_32:\n    /* \"#utility.yul\":490:514   */\n  tag_43\n    /* \"#utility.yul\":508:513   */\n  dup2\n    /* \"#utility.yul\":490:514   */\n  tag_31\n  jump\t// in\ntag_43:\n    /* \"#utility.yul\":483:488   */\n  dup2\n    /* \"#utility.yul\":480:515   */\n  eq\n    /* \"#utility.yul\":470:533   */\n  tag_44\n  jumpi\n    /* \"#utility.yul\":529:530   */\n  0x00\n    /* \"#utility.yul\":526:527   */\n  dup1\n    /* \"#utility.yul\":519:531   */\n  revert\n    /* \"#utility.yul\":470:533   */\ntag_44:\n    /* \"#utility.yul\":417:539   */\n  pop\n  jump\t// out\n    /* \"#utility.yul\":545:688   */\ntag_33:\n    /* \"#utility.yul\":602:607   */\n  0x00\n    /* \"#utility.yul\":633:639   */\n  dup2\n    /* \"#utility.yul\":627:640   */\n  mload\n    /* \"#utility.yul\":618:640   */\n  swap1\n  pop\n    /* \"#utility.yul\":649:682   */\n  tag_46\n    /* \"#utility.yul\":676:681   */\n  dup2\n    /* \"#utility.yul\":649:682   */\n  tag_32\n  jump\t// in\ntag_46:\n    /* \"#utility.yul\":545:688   */\n  swap3\n  swap2\n  pop\n  pop\n  jump\t// out\n    /* \"#utility.yul\":694:1045   */\ntag_5:\n    /* \"#utility.yul\":764:770   */\n  0x00\n    /* \"#utility.yul\":813:815   */\n  0x20\n    /* \"#utility.yul\":801:810   */\n  dup3\n    /* \"#utility.yul\":792:799   */\n  dup5\n    /* \"#utility.yul\":788:811   */\n  sub\n    /* \"#utility.yul\":784:816   */\n  slt\n    /* \"#utility.yul\":781:900   */\n  iszero\n  tag_48\n  jumpi\n    /* \"#utility.yul\":819:898   */\n  tag_49\n  tag_29\n  jump\t// in\ntag_49:\n    /* \"#utility.yul\":781:900   */\ntag_48:\n    /* \"#utility.yul\":939:940   */\n  0x00\n    /* \"#utility.yul\":964:1028   */\n  tag_50\n    /* \"#utility.yul\":1020:1027   */\n  dup5\n    /* \"#utility.yul\":1011:1017   */\n  dup3\n    /* \"#utility.yul\":1000:1009   */\n  dup6\n    /* \"#utility.yul\":996:1018   */\n  add\n    /* \"#utility.yul\":964:1028   */\n  tag_33\n  jump\t// in\ntag_50:\n    /* \"#utility.yul\":954:1028   */\n  swap2\n  pop\n    /* \"#utility.yul\":910:1038   */\n  pop\n    /* \"#utility.yul\":694:1045   */\n  swap3\n  swap2\n  pop\n  pop\n  jump\t// out\n    /* \"#utility.yul\":1051:1231   */\ntag_34:\n    /* \"#utility.yul\":1099:1176   */\n  0x4e487b7100000000000000000000000000000000000000000000000000000000\n    /* \"#utility.yul\":1096:1097   */\n  0x00\n    /* \"#utility.yul\":1089:1177   */\n  mstore\n    /* \"#utility.yul\":1196:1200   */\n  0x11\n    /* \"#utility.yul\":1193:1194   */\n  0x04\n    /* \"#utility.yul\":1186:1201   */\n  mstore\n    /* \"#utility.yul\":1220:1224   */\n  0x24\n    /* \"#utility.yul\":1217:1218   */\n  0x00\n    /* \"#utility.yul\":1210:1225   */\n  revert\n    /* \"#utility.yul\":1237:1542   */\ntag_9:\n    /* \"#utility.yul\":1277:1280   */\n  0x00\n    /* \"#utility.yul\":1296:1316   */\n  tag_53\n    /* \"#utility.yul\":1314:1315   */\n  dup3\n    /* \"#utility.yul\":1296:1316   */\n  tag_31\n  jump\t// in\ntag_53:\n    /* \"#utility.yul\":1291:1316   */\n  swap2\n  pop\n    /* \"#utility.yul\":1330:1350   */\n  tag_54\n    /* \"#utility.yul\":1348:1349   */\n  dup4\n    /* \"#utility.yul\":1330:1350   */\n  tag_31\n  jump\t// in\ntag_54:\n    /* \"#utility.yul\":1325:1350   */\n  swap3\n  pop\n    /* \"#utility.yul\":1484:1485   */\n  dup3\n    /* \"#utility.yul\":1416:1482   */\n  0xffffffffffffffffffffffffffffffffffffffffffffffffffffffffffffffff\n    /* \"#utility.yul\":1412:1486   */\n  sub\n    /* \"#utility.yul\":1409:1410   */\n  dup3\n    /* \"#utility.yul\":1406:1487   */\n  gt\n    /* \"#utility.yul\":1403:1510   */\n  iszero\n  tag_55\n  jumpi\n    /* \"#utility.yul\":1490:1508   */\n  tag_56\n  tag_34\n  jump\t// in\ntag_56:\n    /* \"#utility.yul\":1403:1510   */\ntag_55:\n    /* \"#utility.yul\":1534:1535   */\n  dup3\n    /* \"#utility.yul\":1531:1532   */\n  dup3\n    /* \"#utility.yul\":1527:1536   */\n  add\n    /* \"#utility.yul\":1520:1536   */\n  swap1\n  pop\n    /* \"#utility.yul\":1237:1542   */\n  swap3\n  swap2\n  pop\n  pop\n  jump\t// out\n    /* \"#utility.yul\":1548:1739   */\ntag_11:\n    /* \"#utility.yul\":1588:1592   */\n  0x00\n    /* \"#utility.yul\":1608:1628   */\n  tag_58\n    /* \"#utility.yul\":1626:1627   */\n  dup3\n    /* \"#utility.yul\":1608:1628   */\n  tag_31\n  jump\t// in\ntag_58:\n    /* \"#utility.yul\":1603:1628   */\n  swap2\n  pop\n    /* \"#utility.yul\":1642:1662   */\n  tag_59\n    /* \"#utility.yul\":1660:1661   */\n  dup4\n    /* \"#utility.yul\":1642:1662   */\n  tag_31\n  jump\t// in\ntag_59:\n    /* \"#utility.yul\":1637:1662   */\n  swap3\n  pop\n    /* \"#utility.yul\":1681:1682   */\n  dup3\n    /* \"#utility.yul\":1678:1679   */\n  dup3\n    /* \"#utility.yul\":1675:1683   */\n  lt\n    /* \"#utility.yul\":1672:1706   */\n  iszero\n  tag_60\n  jumpi\n    /* \"#utility.yul\":1686:1704   */\n  tag_61\n  tag_34\n  jump\t// in\ntag_61:\n    /* \"#utility.yul\":1672:1706   */\ntag_60:\n    /* \"#utility.yul\":1731:1732   */\n  dup3\n    /* \"#utility.yul\":1728:1729   */\n  dup3\n    /* \"#utility.yul\":1724:1733   */\n  sub\n    /* \"#utility.yul\":1716:1733   */\n  swap1\n  pop\n    /* \"#utility.yul\":1548:1739   */\n  swap3\n  swap2\n  pop\n  pop\n  jump\t// out\n    /* \"#utility.yul\":1745:1925   */\ntag_35:\n    /* \"#utility.yul\":1793:1870   */\n  0x4e487b7100000000000000000000000000000000000000000000000000000000\n    /* \"#utility.yul\":1790:1791   */\n  0x00\n    /* \"#utility.yul\":1783:1871   */\n  mstore\n    /* \"#utility.yul\":1890:1894   */\n  0x12\n    /* \"#utility.yul\":1887:1888   */\n  0x04\n    /* \"#utility.yul\":1880:1895   */\n  mstore\n    /* \"#utility.yul\":1914:1918   */\n  0x24\n    /* \"#utility.yul\":1911:1912   */\n  0x00\n    /* \"#utility.yul\":1904:1919   */\n  revert\n    /* \"#utility.yul\":1931:2116   */\ntag_13:\n    /* \"#utility.yul\":1971:1972   */\n  0x00\n    /* \"#utility.yul\":1988:2008   */\n  tag_64\n    /* \"#utility.yul\":2006:2007   */\n  dup3\n    /* \"#utility.yul\":1988:2008   */\n  tag_31\n  jump\t// in\ntag_64:\n    /* \"#utility.yul\":1983:2008   */\n  swap2\n  pop\n    /* \"#utility.yul\":2022:2042   */\n  tag_65\n    /* \"#utility.yul\":2040:2041   */\n  dup4\n    /* \"#utility.yul\":2022:2042   */\n  tag_31\n  jump\t// in\ntag_65:\n    /* \"#utility.yul\":2017:2042   */\n  swap3\n  pop\n    /* \"#utility.yul\":2061:2062   */\n  dup3\n    /* \"#utility.yul\":2051:2086   */\n  tag_66\n  jumpi\n    /* \"#utility.yul\":2066:2084   */\n  tag_67\n  tag_35\n  jump\t// in\ntag_67:\n    /* \"#utility.yul\":2051:2086   */\ntag_66:\n    /* \"#utility.yul\":2108:2109   */\n  dup3\n    /* \"#utility.yul\":2105:2106   */\n  dup3\n    /* \"#utility.yul\":2101:2110   */\n  div\n    /* \"#utility.yul\":2096:2110   */\n  swap1\n  pop\n    /* \"#utility.yul\":1931:2116   */\n  swap3\n  swap2\n  pop\n  pop\n  jump\t// out\n    /* \"#utility.yul\":2122:2302   */\ntag_36:\n    /* \"#utility.yul\":2170:2247   */\n  0x4e487b7100000000000000000000000000000000000000000000000000000000\n    /* \"#utility.yul\":2167:2168   */\n  0x00\n    /* \"#utility.yul\":2160:2248   */\n  mstore\n    /* \"#utility.yul\":2267:2271   */\n  0x22\n    /* \"#utility.yul\":2264:2265   */\n  0x04\n    /* \"#utility.yul\":2257:2272   */\n  mstore\n    /* \"#utility.yul\":2291:2295   */\n  0x24\n    /* \"#utility.yul\":2288:2289   */\n  0x00\n    /* \"#utility.yul\":2281:2296   */\n  revert\n    /* \"#utility.yul\":2308:2628   */\ntag_18:\n    /* \"#utility.yul\":2352:2358   */\n  0x00\n    /* \"#utility.yul\":2389:2390   */\n  0x02\n    /* \"#utility.yul\":2383:2387   */\n  dup3\n    /* \"#utility.yul\":2379:2391   */\n  div\n    /* \"#utility.yul\":2369:2391   */\n  swap1\n  pop\n    /* \"#utility.yul\":2436:2437   */\n  0x01\n    /* \"#utility.yul\":2430:2434   */\n  dup3\n    /* \"#utility.yul\":2426:2438   */\n  and\n    /* \"#utility.yul\":2457:2475   */\n  dup1\n    /* \"#utility.yul\":2447:2528   */\n  tag_70\n  jumpi\n    /* \"#utility.yul\":2513:2517   */\n  0x7f\n    /* \"#utility.yul\":2505:2511   */\n  dup3\n    /* \"#utility.yul\":2501:2518   */\n  and\n    /* \"#utility.yul\":2491:2518   */\n  swap2\n  pop\n    /* \"#utility.yul\":2447:2528   */\ntag_70:\n    /* \"#utility.yul\":2575:2577   */\n  0x20\n    /* \"#utility.yul\":2567:2573   */\n  dup3\n    /* \"#utility.yul\":2564:2578   */\n  lt\n    /* \"#utility.yul\":2544:2562   */\n  dup2\n    /* \"#utility.yul\":2541:2579   */\n  sub\n    /* \"#utility.yul\":2538:2622   */\n  tag_71\n  jumpi\n    /* \"#utility.yul\":2594:2612   */\n  tag_72\n  tag_36\n  jump\t// in\ntag_72:\n    /* \"#utility.yul\":2538:2622   */\ntag_71:\n    /* \"#utility.yul\":2359:2628   */\n  pop\n    /* \"#utility.yul\":2308:2628   */\n  swap2\n  swap1\n  pop\n  jump\t// out\n    /* \"eventTicket.sol\":57:754  contract EventTicket {... */\ntag_16:\n  dataSize(sub_0)\n  dup1\n  dataOffset(sub_0)\n  0x00\n  codecopy\n  0x00\n  return\nstop\n\nsub_0: assembly {\n        /* \"eventTicket.sol\":57:754  contract EventTicket {... */\n      mstore(0x40, 0x80)\n      callvalue\n      dup1\n      iszero\n      tag_1\n      jumpi\n      0x00\n      dup1\n      revert\n    tag_1:\n      pop\n      jumpi(tag_2, lt(calldatasize, 0x04))\n      shr(0xe0, calldataload(0x00))\n      dup1\n      0x0640979d\n      eq\n      tag_3\n      jumpi\n      dup1\n      0xd321fe29\n      eq\n      tag_4\n      jumpi\n    tag_2:\n      0x00\n      dup1\n      revert\n        /* \"eventTicket.sol\":496:663  function byTicket(uint256 _value) public returns (uint256 TicketId) {... */\n    tag_3:\n      tag_5\n      0x04\n      dup1\n      calldatasize\n      sub\n      dup2\n      add\n      swap1\n      tag_6\n      swap2\n      swap1\n      tag_7\n      jump\t// in\n    tag_6:\n      tag_8\n      jump\t// in\n    tag_5:\n      mload(0x40)\n      tag_9\n      swap2\n      swap1\n      tag_10\n      jump\t// in\n    tag_9:\n      mload(0x40)\n      dup1\n      swap2\n      sub\n      swap1\n      return\n        /* \"eventTicket.sol\":669:752  function getAmount() public view returns (uint) {... */\n    tag_4:\n      tag_11\n      tag_12\n      jump\t// in\n    tag_11:\n      mload(0x40)\n      tag_13\n      swap2\n      swap1\n      tag_10\n      jump\t// in\n    tag_13:\n      mload(0x40)\n      dup1\n      swap2\n      sub\n      swap1\n      return\n        /* \"eventTicket.sol\":496:663  function byTicket(uint256 _value) public returns (uint256 TicketId) {... */\n    tag_8:\n        /* \"eventTicket.sol\":546:562  uint256 TicketId */\n      0x00\n        /* \"eventTicket.sol\":574:588  numberOfTicket */\n      dup1\n      0x00\n        /* \"eventTicket.sol\":574:590  numberOfTicket++ */\n      dup2\n      sload\n      dup1\n      swap3\n      swap2\n      swap1\n      tag_15\n      swap1\n      tag_16\n      jump\t// in\n    tag_15:\n      swap2\n      swap1\n      pop\n      sstore\n      pop\n        /* \"eventTicket.sol\":615:621  _value */\n      dup2\n        /* \"eventTicket.sol\":600:611  totalAmount */\n      0x02\n      0x00\n        /* \"eventTicket.sol\":600:621  totalAmount += _value */\n      dup3\n      dup3\n      sload\n      tag_17\n      swap2\n      swap1\n      tag_18\n      jump\t// in\n    tag_17:\n      swap3\n      pop\n      pop\n      dup2\n      swap1\n      sstore\n      pop\n        /* \"eventTicket.sol\":642:656  numberOfTicket */\n      sload(0x00)\n        /* \"eventTicket.sol\":631:656  TicketId = numberOfTicket */\n      swap1\n      pop\n        /* \"eventTicket.sol\":496:663  function byTicket(uint256 _value) public returns (uint256 TicketId) {... */\n      swap2\n      swap1\n      pop\n      jump\t// out\n        /* \"eventTicket.sol\":669:752  function getAmount() public view returns (uint) {... */\n    tag_12:\n        /* \"eventTicket.sol\":711:715  uint */\n      0x00\n        /* \"eventTicket.sol\":734:745  totalAmount */\n      sload(0x02)\n        /* \"eventTicket.sol\":727:745  return totalAmount */\n      swap1\n      pop\n        /* \"eventTicket.sol\":669:752  function getAmount() public view returns (uint) {... */\n      swap1\n      jump\t// out\n        /* \"#utility.yul\":88:205   */\n    tag_21:\n        /* \"#utility.yul\":197:198   */\n      0x00\n        /* \"#utility.yul\":194:195   */\n      dup1\n        /* \"#utility.yul\":187:199   */\n      revert\n        /* \"#utility.yul\":334:411   */\n    tag_23:\n        /* \"#utility.yul\":371:378   */\n      0x00\n        /* \"#utility.yul\":400:405   */\n      dup2\n        /* \"#utility.yul\":389:405   */\n      swap1\n      pop\n        /* \"#utility.yul\":334:411   */\n      swap2\n      swap1\n      pop\n      jump\t// out\n        /* \"#utility.yul\":417:539   */\n    tag_24:\n        /* \"#utility.yul\":490:514   */\n      tag_34\n        /* \"#utility.yul\":508:513   */\n      dup2\n        /* \"#utility.yul\":490:514   */\n      tag_23\n      jump\t// in\n    tag_34:\n        /* \"#utility.yul\":483:488   */\n      dup2\n        /* \"#utility.yul\":480:515   */\n      eq\n        /* \"#utility.yul\":470:533   */\n      tag_35\n      jumpi\n        /* \"#utility.yul\":529:530   */\n      0x00\n        /* \"#utility.yul\":526:527   */\n      dup1\n        /* \"#utility.yul\":519:531   */\n      revert\n        /* \"#utility.yul\":470:533   */\n    tag_35:\n        /* \"#utility.yul\":417:539   */\n      pop\n      jump\t// out\n        /* \"#utility.yul\":545:684   */\n    tag_25:\n        /* \"#utility.yul\":591:596   */\n      0x00\n        /* \"#utility.yul\":629:635   */\n      dup2\n        /* \"#utility.yul\":616:636   */\n      calldataload\n        /* \"#utility.yul\":607:636   */\n      swap1\n      pop\n        /* \"#utility.yul\":645:678   */\n      tag_37\n        /* \"#utility.yul\":672:677   */\n      dup2\n        /* \"#utility.yul\":645:678   */\n      tag_24\n      jump\t// in\n    tag_37:\n        /* \"#utility.yul\":545:684   */\n      swap3\n      swap2\n      pop\n      pop\n      jump\t// out\n        /* \"#utility.yul\":690:1019   */\n    tag_7:\n        /* \"#utility.yul\":749:755   */\n      0x00\n        /* \"#utility.yul\":798:800   */\n      0x20\n        /* \"#utility.yul\":786:795   */\n      dup3\n        /* \"#utility.yul\":777:784   */\n      dup5\n        /* \"#utility.yul\":773:796   */\n      sub\n        /* \"#utility.yul\":769:801   */\n      slt\n        /* \"#utility.yul\":766:885   */\n      iszero\n      tag_39\n      jumpi\n        /* \"#utility.yul\":804:883   */\n      tag_40\n      tag_21\n      jump\t// in\n    tag_40:\n        /* \"#utility.yul\":766:885   */\n    tag_39:\n        /* \"#utility.yul\":924:925   */\n      0x00\n        /* \"#utility.yul\":949:1002   */\n      tag_41\n        /* \"#utility.yul\":994:1001   */\n      dup5\n        /* \"#utility.yul\":985:991   */\n      dup3\n        /* \"#utility.yul\":974:983   */\n      dup6\n        /* \"#utility.yul\":970:992   */\n      add\n        /* \"#utility.yul\":949:1002   */\n      tag_25\n      jump\t// in\n    tag_41:\n        /* \"#utility.yul\":939:1002   */\n      swap2\n      pop\n        /* \"#utility.yul\":895:1012   */\n      pop\n        /* \"#utility.yul\":690:1019   */\n      swap3\n      swap2\n      pop\n      pop\n      jump\t// out\n        /* \"#utility.yul\":1025:1143   */\n    tag_26:\n        /* \"#utility.yul\":1112:1136   */\n      tag_43\n        /* \"#utility.yul\":1130:1135   */\n      dup2\n        /* \"#utility.yul\":1112:1136   */\n      tag_23\n      jump\t// in\n    tag_43:\n        /* \"#utility.yul\":1107:1110   */\n      dup3\n        /* \"#utility.yul\":1100:1137   */\n      mstore\n        /* \"#utility.yul\":1025:1143   */\n      pop\n      pop\n      jump\t// out\n        /* \"#utility.yul\":1149:1371   */\n    tag_10:\n        /* \"#utility.yul\":1242:1246   */\n      0x00\n        /* \"#utility.yul\":1280:1282   */\n      0x20\n        /* \"#utility.yul\":1269:1278   */\n      dup3\n        /* \"#utility.yul\":1265:1283   */\n      add\n        /* \"#utility.yul\":1257:1283   */\n      swap1\n      pop\n        /* \"#utility.yul\":1293:1364   */\n      tag_45\n        /* \"#utility.yul\":1361:1362   */\n      0x00\n        /* \"#utility.yul\":1350:1359   */\n      dup4\n        /* \"#utility.yul\":1346:1363   */\n      add\n        /* \"#utility.yul\":1337:1343   */\n      dup5\n        /* \"#utility.yul\":1293:1364   */\n      tag_26\n      jump\t// in\n    tag_45:\n        /* \"#utility.yul\":1149:1371   */\n      swap3\n      swap2\n      pop\n      pop\n      jump\t// out\n        /* \"#utility.yul\":1377:1557   */\n    tag_27:\n        /* \"#utility.yul\":1425:1502   */\n      0x4e487b7100000000000000000000000000000000000000000000000000000000\n        /* \"#utility.yul\":1422:1423   */\n      0x00\n        /* \"#utility.yul\":1415:1503   */\n      mstore\n        /* \"#utility.yul\":1522:1526   */\n      0x11\n        /* \"#utility.yul\":1519:1520   */\n      0x04\n        /* \"#utility.yul\":1512:1527   */\n      mstore\n        /* \"#utility.yul\":1546:1550   */\n      0x24\n        /* \"#utility.yul\":1543:1544   */\n      0x00\n        /* \"#utility.yul\":1536:1551   */\n      revert\n        /* \"#utility.yul\":1563:1796   */\n    tag_16:\n        /* \"#utility.yul\":1602:1605   */\n      0x00\n        /* \"#utility.yul\":1625:1649   */\n      tag_48\n        /* \"#utility.yul\":1643:1648   */\n      dup3\n        /* \"#utility.yul\":1625:1649   */\n      tag_23\n      jump\t// in\n    tag_48:\n        /* \"#utility.yul\":1616:1649   */\n      swap2\n      pop\n        /* \"#utility.yul\":1671:1737   */\n      0xffffffffffffffffffffffffffffffffffffffffffffffffffffffffffffffff\n        /* \"#utility.yul\":1664:1669   */\n      dup3\n        /* \"#utility.yul\":1661:1738   */\n      sub\n        /* \"#utility.yul\":1658:1761   */\n      tag_49\n      jumpi\n        /* \"#utility.yul\":1741:1759   */\n      tag_50\n      tag_27\n      jump\t// in\n    tag_50:\n        /* \"#utility.yul\":1658:1761   */\n    tag_49:\n        /* \"#utility.yul\":1788:1789   */\n      0x01\n        /* \"#utility.yul\":1781:1786   */\n      dup3\n        /* \"#utility.yul\":1777:1790   */\n      add\n        /* \"#utility.yul\":1770:1790   */\n      swap1\n      pop\n        /* \"#utility.yul\":1563:1796   */\n      swap2\n      swap1\n      pop\n      jump\t// out\n        /* \"#utility.yul\":1802:2107   */\n    tag_18:\n        /* \"#utility.yul\":1842:1845   */\n      0x00\n        /* \"#utility.yul\":1861:1881   */\n      tag_52\n        /* \"#utility.yul\":1879:1880   */\n      dup3\n        /* \"#utility.yul\":1861:1881   */\n      tag_23\n      jump\t// in\n    tag_52:\n        /* \"#utility.yul\":1856:1881   */\n      swap2\n      pop\n        /* \"#utility.yul\":1895:1915   */\n      tag_53\n        /* \"#utility.yul\":1913:1914   */\n      dup4\n        /* \"#utility.yul\":1895:1915   */\n      tag_23\n      jump\t// in\n    tag_53:\n        /* \"#utility.yul\":1890:1915   */\n      swap3\n      pop\n        /* \"#utility.yul\":2049:2050   */\n      dup3\n        /* \"#utility.yul\":1981:2047   */\n      0xffffffffffffffffffffffffffffffffffffffffffffffffffffffffffffffff\n        /* \"#utility.yul\":1977:2051   */\n      sub\n        /* \"#utility.yul\":1974:1975   */\n      dup3\n        /* \"#utility.yul\":1971:2052   */\n      gt\n        /* \"#utility.yul\":1968:2075   */\n      iszero\n      tag_54\n      jumpi\n        /* \"#utility.yul\":2055:2073   */\n      tag_55\n      tag_27\n      jump\t// in\n    tag_55:\n        /* \"#utility.yul\":1968:2075   */\n    tag_54:\n        /* \"#utility.yul\":2099:2100   */\n      dup3\n        /* \"#utility.yul\":2096:2097   */\n      dup3\n        /* \"#utility.yul\":2092:2101   */\n      add\n        /* \"#utility.yul\":2085:2101   */\n      swap1\n      pop\n        /* \"#utility.yul\":1802:2107   */\n      swap3\n      swap2\n      pop\n      pop\n      jump\t// out\n\n    auxdata: 0xa2646970667358221220071fb19ec0dcf82f4ec393a79f1472ee0077ae7670a85b0b48c41cc1d29408d464736f6c634300080d0033\n}\n",
				"bytecode": {
					"linkReferences": {},
					"object": "60806040526040518060400160405280601b81526020017f42757920796f7572206669727374206576656e74207469636b657400000000008152506006908051906020019061004f9291906100e0565b5034801561005c57600080fd5b506040516105d73803806105d7833981810160405281019061007e91906101be565b806001819055504260038190555062093a804261009b919061021a565b6004819055506018603c806003546004546100b69190610270565b6100c091906102d3565b6100ca91906102d3565b6100d491906102d3565b60058190555050610364565b8280546100ec90610333565b90600052602060002090601f01602090048101928261010e5760008555610155565b82601f1061012757805160ff1916838001178555610155565b82800160010185558215610155579182015b82811115610154578251825591602001919060010190610139565b5b5090506101629190610166565b5090565b5b8082111561017f576000816000905550600101610167565b5090565b600080fd5b6000819050919050565b61019b81610188565b81146101a657600080fd5b50565b6000815190506101b881610192565b92915050565b6000602082840312156101d4576101d3610183565b5b60006101e2848285016101a9565b91505092915050565b7f4e487b7100000000000000000000000000000000000000000000000000000000600052601160045260246000fd5b600061022582610188565b915061023083610188565b9250827fffffffffffffffffffffffffffffffffffffffffffffffffffffffffffffffff03821115610265576102646101eb565b5b828201905092915050565b600061027b82610188565b915061028683610188565b925082821015610299576102986101eb565b5b828203905092915050565b7f4e487b7100000000000000000000000000000000000000000000000000000000600052601260045260246000fd5b60006102de82610188565b91506102e983610188565b9250826102f9576102f86102a4565b5b828204905092915050565b7f4e487b7100000000000000000000000000000000000000000000000000000000600052602260045260246000fd5b6000600282049050600182168061034b57607f821691505b60208210810361035e5761035d610304565b5b50919050565b610264806103736000396000f3fe608060405234801561001057600080fd5b50600436106100365760003560e01c80630640979d1461003b578063d321fe291461006b575b600080fd5b6100556004803603810190610050919061010a565b610089565b6040516100629190610146565b60405180910390f35b6100736100c5565b6040516100809190610146565b60405180910390f35b600080600081548092919061009d90610190565b919050555081600260008282546100b491906101d8565b925050819055506000549050919050565b6000600254905090565b600080fd5b6000819050919050565b6100e7816100d4565b81146100f257600080fd5b50565b600081359050610104816100de565b92915050565b6000602082840312156101205761011f6100cf565b5b600061012e848285016100f5565b91505092915050565b610140816100d4565b82525050565b600060208201905061015b6000830184610137565b92915050565b7f4e487b7100000000000000000000000000000000000000000000000000000000600052601160045260246000fd5b600061019b826100d4565b91507fffffffffffffffffffffffffffffffffffffffffffffffffffffffffffffffff82036101cd576101cc610161565b5b600182019050919050565b60006101e3826100d4565b91506101ee836100d4565b9250827fffffffffffffffffffffffffffffffffffffffffffffffffffffffffffffffff0382111561022357610222610161565b5b82820190509291505056fea2646970667358221220071fb19ec0dcf82f4ec393a79f1472ee0077ae7670a85b0b48c41cc1d29408d464736f6c634300080d0033",
					"opcodes": "PUSH1 0x80 PUSH1 0x40 MSTORE PUSH1 0x40 MLOAD DUP1 PUSH1 0x40 ADD PUSH1 0x40 MSTORE DUP1 PUSH1 0x1B DUP2 MSTORE PUSH1 0x20 ADD PUSH32 0x42757920796F7572206669727374206576656E74207469636B65740000000000 DUP2 MSTORE POP PUSH1 0x6 SWAP1 DUP1 MLOAD SWAP1 PUSH1 0x20 ADD SWAP1 PUSH2 0x4F SWAP3 SWAP2 SWAP1 PUSH2 0xE0 JUMP JUMPDEST POP CALLVALUE DUP1 ISZERO PUSH2 0x5C JUMPI PUSH1 0x0 DUP1 REVERT JUMPDEST POP PUSH1 0x40 MLOAD PUSH2 0x5D7 CODESIZE SUB DUP1 PUSH2 0x5D7 DUP4 CODECOPY DUP2 DUP2 ADD PUSH1 0x40 MSTORE DUP2 ADD SWAP1 PUSH2 0x7E SWAP2 SWAP1 PUSH2 0x1BE JUMP JUMPDEST DUP1 PUSH1 0x1 DUP2 SWAP1 SSTORE POP TIMESTAMP PUSH1 0x3 DUP2 SWAP1 SSTORE POP PUSH3 0x93A80 TIMESTAMP PUSH2 0x9B SWAP2 SWAP1 PUSH2 0x21A JUMP JUMPDEST PUSH1 0x4 DUP2 SWAP1 SSTORE POP PUSH1 0x18 PUSH1 0x3C DUP1 PUSH1 0x3 SLOAD PUSH1 0x4 SLOAD PUSH2 0xB6 SWAP2 SWAP1 PUSH2 0x270 JUMP JUMPDEST PUSH2 0xC0 SWAP2 SWAP1 PUSH2 0x2D3 JUMP JUMPDEST PUSH2 0xCA SWAP2 SWAP1 PUSH2 0x2D3 JUMP JUMPDEST PUSH2 0xD4 SWAP2 SWAP1 PUSH2 0x2D3 JUMP JUMPDEST PUSH1 0x5 DUP2 SWAP1 SSTORE POP POP PUSH2 0x364 JUMP JUMPDEST DUP3 DUP1 SLOAD PUSH2 0xEC SWAP1 PUSH2 0x333 JUMP JUMPDEST SWAP1 PUSH1 0x0 MSTORE PUSH1 0x20 PUSH1 0x0 KECCAK256 SWAP1 PUSH1 0x1F ADD PUSH1 0x20 SWAP1 DIV DUP2 ADD SWAP3 DUP3 PUSH2 0x10E JUMPI PUSH1 0x0 DUP6 SSTORE PUSH2 0x155 JUMP JUMPDEST DUP3 PUSH1 0x1F LT PUSH2 0x127 JUMPI DUP1 MLOAD PUSH1 0xFF NOT AND DUP4 DUP1 ADD OR DUP6 SSTORE PUSH2 0x155 JUMP JUMPDEST DUP3 DUP1 ADD PUSH1 0x1 ADD DUP6 SSTORE DUP3 ISZERO PUSH2 0x155 JUMPI SWAP2 DUP3 ADD JUMPDEST DUP3 DUP2 GT ISZERO PUSH2 0x154 JUMPI DUP3 MLOAD DUP3 SSTORE SWAP2 PUSH1 0x20 ADD SWAP2 SWAP1 PUSH1 0x1 ADD SWAP1 PUSH2 0x139 JUMP JUMPDEST JUMPDEST POP SWAP1 POP PUSH2 0x162 SWAP2 SWAP1 PUSH2 0x166 JUMP JUMPDEST POP SWAP1 JUMP JUMPDEST JUMPDEST DUP1 DUP3 GT ISZERO PUSH2 0x17F JUMPI PUSH1 0x0 DUP2 PUSH1 0x0 SWAP1 SSTORE POP PUSH1 0x1 ADD PUSH2 0x167 JUMP JUMPDEST POP SWAP1 JUMP JUMPDEST PUSH1 0x0 DUP1 REVERT JUMPDEST PUSH1 0x0 DUP2 SWAP1 POP SWAP2 SWAP1 POP JUMP JUMPDEST PUSH2 0x19B DUP2 PUSH2 0x188 JUMP JUMPDEST DUP2 EQ PUSH2 0x1A6 JUMPI PUSH1 0x0 DUP1 REVERT JUMPDEST POP JUMP JUMPDEST PUSH1 0x0 DUP2 MLOAD SWAP1 POP PUSH2 0x1B8 DUP2 PUSH2 0x192 JUMP JUMPDEST SWAP3 SWAP2 POP POP JUMP JUMPDEST PUSH1 0x0 PUSH1 0x20 DUP3 DUP5 SUB SLT ISZERO PUSH2 0x1D4 JUMPI PUSH2 0x1D3 PUSH2 0x183 JUMP JUMPDEST JUMPDEST PUSH1 0x0 PUSH2 0x1E2 DUP5 DUP3 DUP6 ADD PUSH2 0x1A9 JUMP JUMPDEST SWAP2 POP POP SWAP3 SWAP2 POP POP JUMP JUMPDEST PUSH32 0x4E487B7100000000000000000000000000000000000000000000000000000000 PUSH1 0x0 MSTORE PUSH1 0x11 PUSH1 0x4 MSTORE PUSH1 0x24 PUSH1 0x0 REVERT JUMPDEST PUSH1 0x0 PUSH2 0x225 DUP3 PUSH2 0x188 JUMP JUMPDEST SWAP2 POP PUSH2 0x230 DUP4 PUSH2 0x188 JUMP JUMPDEST SWAP3 POP DUP3 PUSH32 0xFFFFFFFFFFFFFFFFFFFFFFFFFFFFFFFFFFFFFFFFFFFFFFFFFFFFFFFFFFFFFFFF SUB DUP3 GT ISZERO PUSH2 0x265 JUMPI PUSH2 0x264 PUSH2 0x1EB JUMP JUMPDEST JUMPDEST DUP3 DUP3 ADD SWAP1 POP SWAP3 SWAP2 POP POP JUMP JUMPDEST PUSH1 0x0 PUSH2 0x27B DUP3 PUSH2 0x188 JUMP JUMPDEST SWAP2 POP PUSH2 0x286 DUP4 PUSH2 0x188 JUMP JUMPDEST SWAP3 POP DUP3 DUP3 LT ISZERO PUSH2 0x299 JUMPI PUSH2 0x298 PUSH2 0x1EB JUMP JUMPDEST JUMPDEST DUP3 DUP3 SUB SWAP1 POP SWAP3 SWAP2 POP POP JUMP JUMPDEST PUSH32 0x4E487B7100000000000000000000000000000000000000000000000000000000 PUSH1 0x0 MSTORE PUSH1 0x12 PUSH1 0x4 MSTORE PUSH1 0x24 PUSH1 0x0 REVERT JUMPDEST PUSH1 0x0 PUSH2 0x2DE DUP3 PUSH2 0x188 JUMP JUMPDEST SWAP2 POP PUSH2 0x2E9 DUP4 PUSH2 0x188 JUMP JUMPDEST SWAP3 POP DUP3 PUSH2 0x2F9 JUMPI PUSH2 0x2F8 PUSH2 0x2A4 JUMP JUMPDEST JUMPDEST DUP3 DUP3 DIV SWAP1 POP SWAP3 SWAP2 POP POP JUMP JUMPDEST PUSH32 0x4E487B7100000000000000000000000000000000000000000000000000000000 PUSH1 0x0 MSTORE PUSH1 0x22 PUSH1 0x4 MSTORE PUSH1 0x24 PUSH1 0x0 REVERT JUMPDEST PUSH1 0x0 PUSH1 0x2 DUP3 DIV SWAP1 POP PUSH1 0x1 DUP3 AND DUP1 PUSH2 0x34B JUMPI PUSH1 0x7F DUP3 AND SWAP2 POP JUMPDEST PUSH1 0x20 DUP3 LT DUP2 SUB PUSH2 0x35E JUMPI PUSH2 0x35D PUSH2 0x304 JUMP JUMPDEST JUMPDEST POP SWAP2 SWAP1 POP JUMP JUMPDEST PUSH2 0x264 DUP1 PUSH2 0x373 PUSH1 0x0 CODECOPY PUSH1 0x0 RETURN INVALID PUSH1 0x80 PUSH1 0x40 MSTORE CALLVALUE DUP1 ISZERO PUSH2 0x10 JUMPI PUSH1 0x0 DUP1 REVERT JUMPDEST POP PUSH1 0x4 CALLDATASIZE LT PUSH2 0x36 JUMPI PUSH1 0x0 CALLDATALOAD PUSH1 0xE0 SHR DUP1 PUSH4 0x640979D EQ PUSH2 0x3B JUMPI DUP1 PUSH4 0xD321FE29 EQ PUSH2 0x6B JUMPI JUMPDEST PUSH1 0x0 DUP1 REVERT JUMPDEST PUSH2 0x55 PUSH1 0x4 DUP1 CALLDATASIZE SUB DUP2 ADD SWAP1 PUSH2 0x50 SWAP2 SWAP1 PUSH2 0x10A JUMP JUMPDEST PUSH2 0x89 JUMP JUMPDEST PUSH1 0x40 MLOAD PUSH2 0x62 SWAP2 SWAP1 PUSH2 0x146 JUMP JUMPDEST PUSH1 0x40 MLOAD DUP1 SWAP2 SUB SWAP1 RETURN JUMPDEST PUSH2 0x73 PUSH2 0xC5 JUMP JUMPDEST PUSH1 0x40 MLOAD PUSH2 0x80 SWAP2 SWAP1 PUSH2 0x146 JUMP JUMPDEST PUSH1 0x40 MLOAD DUP1 SWAP2 SUB SWAP1 RETURN JUMPDEST PUSH1 0x0 DUP1 PUSH1 0x0 DUP2 SLOAD DUP1 SWAP3 SWAP2 SWAP1 PUSH2 0x9D SWAP1 PUSH2 0x190 JUMP JUMPDEST SWAP2 SWAP1 POP SSTORE POP DUP2 PUSH1 0x2 PUSH1 0x0 DUP3 DUP3 SLOAD PUSH2 0xB4 SWAP2 SWAP1 PUSH2 0x1D8 JUMP JUMPDEST SWAP3 POP POP DUP2 SWAP1 SSTORE POP PUSH1 0x0 SLOAD SWAP1 POP SWAP2 SWAP1 POP JUMP JUMPDEST PUSH1 0x0 PUSH1 0x2 SLOAD SWAP1 POP SWAP1 JUMP JUMPDEST PUSH1 0x0 DUP1 REVERT JUMPDEST PUSH1 0x0 DUP2 SWAP1 POP SWAP2 SWAP1 POP JUMP JUMPDEST PUSH2 0xE7 DUP2 PUSH2 0xD4 JUMP JUMPDEST DUP2 EQ PUSH2 0xF2 JUMPI PUSH1 0x0 DUP1 REVERT JUMPDEST POP JUMP JUMPDEST PUSH1 0x0 DUP2 CALLDATALOAD SWAP1 POP PUSH2 0x104 DUP2 PUSH2 0xDE JUMP JUMPDEST SWAP3 SWAP2 POP POP JUMP JUMPDEST PUSH1 0x0 PUSH1 0x20 DUP3 DUP5 SUB SLT ISZERO PUSH2 0x120 JUMPI PUSH2 0x11F PUSH2 0xCF JUMP JUMPDEST JUMPDEST PUSH1 0x0 PUSH2 0x12E DUP5 DUP3 DUP6 ADD PUSH2 0xF5 JUMP JUMPDEST SWAP2 POP POP SWAP3 SWAP2 POP POP JUMP JUMPDEST PUSH2 0x140 DUP2 PUSH2 0xD4 JUMP JUMPDEST DUP3 MSTORE POP POP JUMP JUMPDEST PUSH1 0x0 PUSH1 0x20 DUP3 ADD SWAP1 POP PUSH2 0x15B PUSH1 0x0 DUP4 ADD DUP5 PUSH2 0x137 JUMP JUMPDEST SWAP3 SWAP2 POP POP JUMP JUMPDEST PUSH32 0x4E487B7100000000000000000000000000000000000000000000000000000000 PUSH1 0x0 MSTORE PUSH1 0x11 PUSH1 0x4 MSTORE PUSH1 0x24 PUSH1 0x0 REVERT JUMPDEST PUSH1 0x0 PUSH2 0x19B DUP3 PUSH2 0xD4 JUMP JUMPDEST SWAP2 POP PUSH32 0xFFFFFFFFFFFFFFFFFFFFFFFFFFFFFFFFFFFFFFFFFFFFFFFFFFFFFFFFFFFFFFFF DUP3 SUB PUSH2 0x1CD JUMPI PUSH2 0x1CC PUSH2 0x161 JUMP JUMPDEST JUMPDEST PUSH1 0x1 DUP3 ADD SWAP1 POP SWAP2 SWAP1 POP JUMP JUMPDEST PUSH1 0x0 PUSH2 0x1E3 DUP3 PUSH2 0xD4 JUMP JUMPDEST SWAP2 POP PUSH2 0x1EE DUP4 PUSH2 0xD4 JUMP JUMPDEST SWAP3 POP DUP3 PUSH32 0xFFFFFFFFFFFFFFFFFFFFFFFFFFFFFFFFFFFFFFFFFFFFFFFFFFFFFFFFFFFFFFFF SUB DUP3 GT ISZERO PUSH2 0x223 JUMPI PUSH2 0x222 PUSH2 0x161 JUMP JUMPDEST JUMPDEST DUP3 DUP3 ADD SWAP1 POP SWAP3 SWAP2 POP POP JUMP INVALID LOG2 PUSH5 0x6970667358 0x22 SLT KECCAK256 SMOD 0x1F 0xB1 SWAP15 0xC0 0xDC 0xF8 0x2F 0x4E 0xC3 SWAP4 0xA7 SWAP16 EQ PUSH19 0xEE0077AE7670A85B0B48C41CC1D29408D46473 PUSH16 0x6C634300080D00330000000000000000 "
				},
				"gasEstimates": {
					"creation": {
						"codeDepositCost": "122400",
						"executionCost": "infinite",
						"totalCost": "infinite"
					},
					"external": {
						"byTicket(uint256)": "infinite",
						"getAmount()": "2437"
					}
				},
				"methodIdentifiers": {
					"byTicket(uint256)": "0640979d",
					"getAmount()": "d321fe29"
				}
			},
			"storageLayout": {
				"storage": [
					{
						"astId": 3,
						"contract": "eventTicket.sol:EventTicket",
						"label": "numberOfTicket",
						"offset": 0,
						"slot": "0",
						"type": "t_uint256"
					},
					{
						"astId": 5,
						"contract": "eventTicket.sol:EventTicket",
						"label": "ticketPrice",
						"offset": 0,
						"slot": "1",
						"type": "t_uint256"
					},
					{
						"astId": 7,
						"contract": "eventTicket.sol:EventTicket",
						"label": "totalAmount",
						"offset": 0,
						"slot": "2",
						"type": "t_uint256"
					},
					{
						"astId": 9,
						"contract": "eventTicket.sol:EventTicket",
						"label": "startAt",
						"offset": 0,
						"slot": "3",
						"type": "t_uint256"
					},
					{
						"astId": 11,
						"contract": "eventTicket.sol:EventTicket",
						"label": "endAt",
						"offset": 0,
						"slot": "4",
						"type": "t_uint256"
					},
					{
						"astId": 13,
						"contract": "eventTicket.sol:EventTicket",
						"label": "timeRange",
						"offset": 0,
						"slot": "5",
						"type": "t_uint256"
					},
					{
						"astId": 16,
						"contract": "eventTicket.sol:EventTicket",
						"label": "message",
						"offset": 0,
						"slot": "6",
						"type": "t_string_storage"
					}
				],
				"types": {
					"t_string_storage": {
						"encoding": "bytes",
						"label": "string",
						"numberOfBytes": "32"
					},
					"t_uint256": {
						"encoding": "inplace",
						"label": "uint256",
						"numberOfBytes": "32"
					}
				}
			},
			"userdoc": {
				"kind": "user",
				"methods": {},
				"version": 1
			}
		}
	}
}